:1000000019C020C01FC01EC01DC01CC01BC01AC00C
:1000100019C018C017C016C015C014C013C012C034
:1000200011C010C00FC00EC00DC00CC00BC00AC064
:1000300009C008C011241FBECFEFCDBFDFE3DEBF74
:1000400002D034C0DDCF84E080930102E0E4F4E02C
:100050008DE0818388E08583E0E2F8E084E48183B9
:1000600083E28083A0E4B4E088E03AEC2EEF9AEBE0
:1000700016968C931697348347E34A95F1F700C0A0
:10008000248357E35A95F1F700C0948367E36A9598
:10009000F1F700C015968C9315974AE654E061E09D
:1000A000415050406040E1F700C0E2CFF894FFCFEC
:00000001FF
