:1000000019C020C01FC01EC01DC01CC01BC01AC00C
:1000100019C018C017C016C015C014C013C012C034
:1000200011C010C00FC00EC00DC00CC00BC00AC064
:1000300009C008C011241FBECFEFCDBFDFE3DEBF74
:1000400002D065C0DDCFCF93DF93CDB7DEB7C2540A
:10005000D109CDBFDEBF84E08093010282E08093AE
:100060004104E0E2F8E084EC818383E08083FE01D8
:10007000319680E4DF011D928A95E9F723961EAE42
:100080001FAE2397E0E2F8E083818823ECF782EC4F
:1000900092EA0197F1F700C023968EAD9FAD2397AA
:1000A0009C012F5F3F4F23962EAF3FAF23972481B4
:1000B000A1E0B0E0AC0FBD1FA80FB91F2C93239691
:1000C0008EAD9FAD23979C012F5F3F4F23962EAFA0
:1000D0003FAF23972481A1E0B0E0AC0FBD1FA80F74
:1000E000B91F2C9323968EAD9FAD23979C012F5F54
:1000F0003F4F23962EAF3FAF23972481A1E0B0E07E
:10010000AC0FBD1FA80FB91F2C930000BDCFF894F2
:02011000FFCF1F
:00000001FF
